{
  "_format": "hh-sol-artifact-1",
  "contractName": "DungeonToken",
  "sourceName": "contracts/DungeonToken.sol",
  "abi": [
    {
      "inputs": [],
      "stateMutability": "nonpayable",
      "type": "constructor"
    },
    {
      "inputs": [
        {
          "internalType": "address",
          "name": "sender",
          "type": "address"
        },
        {
          "internalType": "uint256",
          "name": "balance",
          "type": "uint256"
        },
        {
          "internalType": "uint256",
          "name": "needed",
          "type": "uint256"
        },
        {
          "internalType": "uint256",
          "name": "tokenId",
          "type": "uint256"
        }
      ],
      "name": "ERC1155InsufficientBalance",
      "type": "error"
    },
    {
      "inputs": [
        {
          "internalType": "address",
          "name": "approver",
          "type": "address"
        }
      ],
      "name": "ERC1155InvalidApprover",
      "type": "error"
    },
    {
      "inputs": [
        {
          "internalType": "uint256",
          "name": "idsLength",
          "type": "uint256"
        },
        {
          "internalType": "uint256",
          "name": "valuesLength",
          "type": "uint256"
        }
      ],
      "name": "ERC1155InvalidArrayLength",
      "type": "error"
    },
    {
      "inputs": [
        {
          "internalType": "address",
          "name": "operator",
          "type": "address"
        }
      ],
      "name": "ERC1155InvalidOperator",
      "type": "error"
    },
    {
      "inputs": [
        {
          "internalType": "address",
          "name": "receiver",
          "type": "address"
        }
      ],
      "name": "ERC1155InvalidReceiver",
      "type": "error"
    },
    {
      "inputs": [
        {
          "internalType": "address",
          "name": "sender",
          "type": "address"
        }
      ],
      "name": "ERC1155InvalidSender",
      "type": "error"
    },
    {
      "inputs": [
        {
          "internalType": "address",
          "name": "operator",
          "type": "address"
        },
        {
          "internalType": "address",
          "name": "owner",
          "type": "address"
        }
      ],
      "name": "ERC1155MissingApprovalForAll",
      "type": "error"
    },
    {
      "inputs": [
        {
          "internalType": "address",
          "name": "owner",
          "type": "address"
        }
      ],
      "name": "OwnableInvalidOwner",
      "type": "error"
    },
    {
      "inputs": [
        {
          "internalType": "address",
          "name": "account",
          "type": "address"
        }
      ],
      "name": "OwnableUnauthorizedAccount",
      "type": "error"
    },
    {
      "anonymous": false,
      "inputs": [
        {
          "indexed": true,
          "internalType": "address",
          "name": "account",
          "type": "address"
        },
        {
          "indexed": true,
          "internalType": "address",
          "name": "operator",
          "type": "address"
        },
        {
          "indexed": false,
          "internalType": "bool",
          "name": "approved",
          "type": "bool"
        }
      ],
      "name": "ApprovalForAll",
      "type": "event"
    },
    {
      "anonymous": false,
      "inputs": [
        {
          "indexed": true,
          "internalType": "address",
          "name": "player",
          "type": "address"
        },
        {
          "indexed": false,
          "internalType": "uint256",
          "name": "lootId",
          "type": "uint256"
        },
        {
          "indexed": false,
          "internalType": "uint256",
          "name": "amount",
          "type": "uint256"
        }
      ],
      "name": "DungeonRun",
      "type": "event"
    },
    {
      "anonymous": false,
      "inputs": [
        {
          "indexed": true,
          "internalType": "address",
          "name": "player",
          "type": "address"
        },
        {
          "indexed": false,
          "internalType": "uint256",
          "name": "resultId",
          "type": "uint256"
        },
        {
          "indexed": false,
          "internalType": "uint256",
          "name": "amount",
          "type": "uint256"
        }
      ],
      "name": "ItemCrafted",
      "type": "event"
    },
    {
      "anonymous": false,
      "inputs": [
        {
          "indexed": true,
          "internalType": "address",
          "name": "previousOwner",
          "type": "address"
        },
        {
          "indexed": true,
          "internalType": "address",
          "name": "newOwner",
          "type": "address"
        }
      ],
      "name": "OwnershipTransferred",
      "type": "event"
    },
    {
      "anonymous": false,
      "inputs": [
        {
          "indexed": true,
          "internalType": "address",
          "name": "player",
          "type": "address"
        }
      ],
      "name": "StarterPackClaimed",
      "type": "event"
    },
    {
      "anonymous": false,
      "inputs": [
        {
          "indexed": true,
          "internalType": "address",
          "name": "operator",
          "type": "address"
        },
        {
          "indexed": true,
          "internalType": "address",
          "name": "from",
          "type": "address"
        },
        {
          "indexed": true,
          "internalType": "address",
          "name": "to",
          "type": "address"
        },
        {
          "indexed": false,
          "internalType": "uint256[]",
          "name": "ids",
          "type": "uint256[]"
        },
        {
          "indexed": false,
          "internalType": "uint256[]",
          "name": "values",
          "type": "uint256[]"
        }
      ],
      "name": "TransferBatch",
      "type": "event"
    },
    {
      "anonymous": false,
      "inputs": [
        {
          "indexed": true,
          "internalType": "address",
          "name": "operator",
          "type": "address"
        },
        {
          "indexed": true,
          "internalType": "address",
          "name": "from",
          "type": "address"
        },
        {
          "indexed": true,
          "internalType": "address",
          "name": "to",
          "type": "address"
        },
        {
          "indexed": false,
          "internalType": "uint256",
          "name": "id",
          "type": "uint256"
        },
        {
          "indexed": false,
          "internalType": "uint256",
          "name": "value",
          "type": "uint256"
        }
      ],
      "name": "TransferSingle",
      "type": "event"
    },
    {
      "anonymous": false,
      "inputs": [
        {
          "indexed": false,
          "internalType": "string",
          "name": "value",
          "type": "string"
        },
        {
          "indexed": true,
          "internalType": "uint256",
          "name": "id",
          "type": "uint256"
        }
      ],
      "name": "URI",
      "type": "event"
    },
    {
      "inputs": [],
      "name": "COMMON_SWORD",
      "outputs": [
        {
          "internalType": "uint256",
          "name": "",
          "type": "uint256"
        }
      ],
      "stateMutability": "view",
      "type": "function"
    },
    {
      "inputs": [],
      "name": "DUNGEON_ENERGY_COST",
      "outputs": [
        {
          "internalType": "uint256",
          "name": "",
          "type": "uint256"
        }
      ],
      "stateMutability": "view",
      "type": "function"
    },
    {
      "inputs": [],
      "name": "ENERGY",
      "outputs": [
        {
          "internalType": "uint256",
          "name": "",
          "type": "uint256"
        }
      ],
      "stateMutability": "view",
      "type": "function"
    },
    {
      "inputs": [],
      "name": "EPIC_SWORD",
      "outputs": [
        {
          "internalType": "uint256",
          "name": "",
          "type": "uint256"
        }
      ],
      "stateMutability": "view",
      "type": "function"
    },
    {
      "inputs": [],
      "name": "GOLD",
      "outputs": [
        {
          "internalType": "uint256",
          "name": "",
          "type": "uint256"
        }
      ],
      "stateMutability": "view",
      "type": "function"
    },
    {
      "inputs": [],
      "name": "LEGENDARY_SWORD_1",
      "outputs": [
        {
          "internalType": "uint256",
          "name": "",
          "type": "uint256"
        }
      ],
      "stateMutability": "view",
      "type": "function"
    },
    {
      "inputs": [],
      "name": "LEGENDARY_SWORD_2",
      "outputs": [
        {
          "internalType": "uint256",
          "name": "",
          "type": "uint256"
        }
      ],
      "stateMutability": "view",
      "type": "function"
    },
    {
      "inputs": [],
      "name": "LEGENDARY_SWORD_3",
      "outputs": [
        {
          "internalType": "uint256",
          "name": "",
          "type": "uint256"
        }
      ],
      "stateMutability": "view",
      "type": "function"
    },
    {
      "inputs": [],
      "name": "LEGENDARY_SWORD_4",
      "outputs": [
        {
          "internalType": "uint256",
          "name": "",
          "type": "uint256"
        }
      ],
      "stateMutability": "view",
      "type": "function"
    },
    {
      "inputs": [],
      "name": "LEGENDARY_SWORD_5",
      "outputs": [
        {
          "internalType": "uint256",
          "name": "",
          "type": "uint256"
        }
      ],
      "stateMutability": "view",
      "type": "function"
    },
    {
      "inputs": [],
      "name": "RARE_SWORD",
      "outputs": [
        {
          "internalType": "uint256",
          "name": "",
          "type": "uint256"
        }
      ],
      "stateMutability": "view",
      "type": "function"
    },
    {
      "inputs": [],
      "name": "STARTER_PACK_ENERGY",
      "outputs": [
        {
          "internalType": "uint256",
          "name": "",
          "type": "uint256"
        }
      ],
      "stateMutability": "view",
      "type": "function"
    },
    {
      "inputs": [],
      "name": "STARTER_PACK_GOLD",
      "outputs": [
        {
          "internalType": "uint256",
          "name": "",
          "type": "uint256"
        }
      ],
      "stateMutability": "view",
      "type": "function"
    },
    {
      "inputs": [],
      "name": "TIME_REWARD_COOLDOWN",
      "outputs": [
        {
          "internalType": "uint256",
          "name": "",
          "type": "uint256"
        }
      ],
      "stateMutability": "view",
      "type": "function"
    },
    {
      "inputs": [
        {
          "internalType": "address",
          "name": "account",
          "type": "address"
        },
        {
          "internalType": "uint256",
          "name": "id",
          "type": "uint256"
        }
      ],
      "name": "balanceOf",
      "outputs": [
        {
          "internalType": "uint256",
          "name": "",
          "type": "uint256"
        }
      ],
      "stateMutability": "view",
      "type": "function"
    },
    {
      "inputs": [
        {
          "internalType": "address[]",
          "name": "accounts",
          "type": "address[]"
        },
        {
          "internalType": "uint256[]",
          "name": "ids",
          "type": "uint256[]"
        }
      ],
      "name": "balanceOfBatch",
      "outputs": [
        {
          "internalType": "uint256[]",
          "name": "",
          "type": "uint256[]"
        }
      ],
      "stateMutability": "view",
      "type": "function"
    },
    {
      "inputs": [],
      "name": "claimStarterPack",
      "outputs": [],
      "stateMutability": "nonpayable",
      "type": "function"
    },
    {
      "inputs": [],
      "name": "claimTimeRewards",
      "outputs": [],
      "stateMutability": "nonpayable",
      "type": "function"
    },
    {
      "inputs": [],
      "name": "craftEpicSword",
      "outputs": [],
      "stateMutability": "nonpayable",
      "type": "function"
    },
    {
      "inputs": [
        {
          "internalType": "uint256[]",
          "name": "burnIds",
          "type": "uint256[]"
        },
        {
          "internalType": "uint256[]",
          "name": "burnAmounts",
          "type": "uint256[]"
        },
        {
          "internalType": "uint256",
          "name": "resultId",
          "type": "uint256"
        }
      ],
      "name": "craftItem",
      "outputs": [],
      "stateMutability": "nonpayable",
      "type": "function"
    },
    {
      "inputs": [
        {
          "internalType": "uint256",
          "name": "legendaryId",
          "type": "uint256"
        }
      ],
      "name": "craftLegendarySword",
      "outputs": [],
      "stateMutability": "nonpayable",
      "type": "function"
    },
    {
      "inputs": [],
      "name": "craftRareSword",
      "outputs": [],
      "stateMutability": "nonpayable",
      "type": "function"
    },
    {
      "inputs": [
        {
          "internalType": "address",
          "name": "player",
          "type": "address"
        }
      ],
      "name": "getInventory",
      "outputs": [
        {
          "internalType": "uint256",
          "name": "energy",
          "type": "uint256"
        },
        {
          "internalType": "uint256",
          "name": "gold",
          "type": "uint256"
        },
        {
          "internalType": "uint256",
          "name": "commonSword",
          "type": "uint256"
        },
        {
          "internalType": "uint256",
          "name": "rareSword",
          "type": "uint256"
        },
        {
          "internalType": "uint256",
          "name": "epicSword",
          "type": "uint256"
        }
      ],
      "stateMutability": "view",
      "type": "function"
    },
    {
      "inputs": [
        {
          "internalType": "address",
          "name": "",
          "type": "address"
        }
      ],
      "name": "hasClaimedStarterPack",
      "outputs": [
        {
          "internalType": "bool",
          "name": "",
          "type": "bool"
        }
      ],
      "stateMutability": "view",
      "type": "function"
    },
    {
      "inputs": [
        {
          "internalType": "address",
          "name": "",
          "type": "address"
        },
        {
          "internalType": "uint256",
          "name": "",
          "type": "uint256"
        }
      ],
      "name": "hasCraftedLegendary",
      "outputs": [
        {
          "internalType": "bool",
          "name": "",
          "type": "bool"
        }
      ],
      "stateMutability": "view",
      "type": "function"
    },
    {
      "inputs": [
        {
          "internalType": "address",
          "name": "account",
          "type": "address"
        },
        {
          "internalType": "address",
          "name": "operator",
          "type": "address"
        }
      ],
      "name": "isApprovedForAll",
      "outputs": [
        {
          "internalType": "bool",
          "name": "",
          "type": "bool"
        }
      ],
      "stateMutability": "view",
      "type": "function"
    },
    {
      "inputs": [
        {
          "internalType": "address",
          "name": "",
          "type": "address"
        }
      ],
      "name": "lastTimeRewardClaim",
      "outputs": [
        {
          "internalType": "uint256",
          "name": "",
          "type": "uint256"
        }
      ],
      "stateMutability": "view",
      "type": "function"
    },
    {
      "inputs": [
        {
          "internalType": "address",
          "name": "to",
          "type": "address"
        },
        {
          "internalType": "uint256",
          "name": "amount",
          "type": "uint256"
        }
      ],
      "name": "mintEnergy",
      "outputs": [],
      "stateMutability": "nonpayable",
      "type": "function"
    },
    {
      "inputs": [
        {
          "internalType": "address",
          "name": "to",
          "type": "address"
        },
        {
          "internalType": "uint256",
          "name": "amount",
          "type": "uint256"
        }
      ],
      "name": "mintGold",
      "outputs": [],
      "stateMutability": "nonpayable",
      "type": "function"
    },
    {
      "inputs": [],
      "name": "owner",
      "outputs": [
        {
          "internalType": "address",
          "name": "",
          "type": "address"
        }
      ],
      "stateMutability": "view",
      "type": "function"
    },
    {
      "inputs": [],
      "name": "renounceOwnership",
      "outputs": [],
      "stateMutability": "nonpayable",
      "type": "function"
    },
    {
      "inputs": [],
      "name": "runDungeon",
      "outputs": [],
      "stateMutability": "nonpayable",
      "type": "function"
    },
    {
      "inputs": [
        {
          "internalType": "address",
          "name": "from",
          "type": "address"
        },
        {
          "internalType": "address",
          "name": "to",
          "type": "address"
        },
        {
          "internalType": "uint256[]",
          "name": "ids",
          "type": "uint256[]"
        },
        {
          "internalType": "uint256[]",
          "name": "values",
          "type": "uint256[]"
        },
        {
          "internalType": "bytes",
          "name": "data",
          "type": "bytes"
        }
      ],
      "name": "safeBatchTransferFrom",
      "outputs": [],
      "stateMutability": "nonpayable",
      "type": "function"
    },
    {
      "inputs": [
        {
          "internalType": "address",
          "name": "from",
          "type": "address"
        },
        {
          "internalType": "address",
          "name": "to",
          "type": "address"
        },
        {
          "internalType": "uint256",
          "name": "id",
          "type": "uint256"
        },
        {
          "internalType": "uint256",
          "name": "value",
          "type": "uint256"
        },
        {
          "internalType": "bytes",
          "name": "data",
          "type": "bytes"
        }
      ],
      "name": "safeTransferFrom",
      "outputs": [],
      "stateMutability": "nonpayable",
      "type": "function"
    },
    {
      "inputs": [
        {
          "internalType": "address",
          "name": "operator",
          "type": "address"
        },
        {
          "internalType": "bool",
          "name": "approved",
          "type": "bool"
        }
      ],
      "name": "setApprovalForAll",
      "outputs": [],
      "stateMutability": "nonpayable",
      "type": "function"
    },
    {
      "inputs": [
        {
          "internalType": "bytes4",
          "name": "interfaceId",
          "type": "bytes4"
        }
      ],
      "name": "supportsInterface",
      "outputs": [
        {
          "internalType": "bool",
          "name": "",
          "type": "bool"
        }
      ],
      "stateMutability": "view",
      "type": "function"
    },
    {
      "inputs": [
        {
          "internalType": "address",
          "name": "newOwner",
          "type": "address"
        }
      ],
      "name": "transferOwnership",
      "outputs": [],
      "stateMutability": "nonpayable",
      "type": "function"
    },
    {
      "inputs": [
        {
          "internalType": "uint256",
          "name": "",
          "type": "uint256"
        }
      ],
      "name": "uri",
      "outputs": [
        {
          "internalType": "string",
          "name": "",
          "type": "string"
        }
      ],
      "stateMutability": "view",
      "type": "function"
    },
    {
      "anonymous": false,
      "inputs": [
        {
          "indexed": true,
          "internalType": "address",
          "name": "player",
          "type": "address"
        }
      ],
      "name": "PlayerReset",
      "type": "event"
    },
    {
      "inputs": [
        {
          "internalType": "uint256",
          "name": "index",
          "type": "uint256"
        }
      ],
      "name": "getPlayerAt",
      "outputs": [
        {
          "internalType": "address",
          "name": "",
          "type": "address"
        }
      ],
      "stateMutability": "view",
      "type": "function"
    },
    {
      "inputs": [],
      "name": "getPlayerCount",
      "outputs": [
        {
          "internalType": "uint256",
          "name": "",
          "type": "uint256"
        }
      ],
      "stateMutability": "view",
      "type": "function"
    },
    {
      "inputs": [
        {
          "internalType": "address",
          "name": "",
          "type": "address"
        }
      ],
      "name": "isPlayer",
      "outputs": [
        {
          "internalType": "bool",
          "name": "",
          "type": "bool"
        }
      ],
      "stateMutability": "view",
      "type": "function"
    },
    {
      "inputs": [
        {
          "internalType": "uint256",
          "name": "",
          "type": "uint256"
        }
      ],
      "name": "playerList",
      "outputs": [
        {
          "internalType": "address",
          "name": "",
          "type": "address"
        }
      ],
      "stateMutability": "view",
      "type": "function"
    },
    {
      "inputs": [],
      "name": "resetAllPlayers",
      "outputs": [],
      "stateMutability": "nonpayable",
      "type": "function"
    },
    {
      "inputs": [
        {
          "internalType": "address",
          "name": "player",
          "type": "address"
        }
      ],
      "name": "resetPlayer",
      "outputs": [],
      "stateMutability": "nonpayable",
      "type": "function"
    },
    {
      "inputs": [
        {
          "internalType": "address[]",
          "name": "players",
          "type": "address[]"
        }
      ],
      "name": "resetPlayers",
      "outputs": [],
      "stateMutability": "nonpayable",
      "type": "function"
    }
  ],
  "bytecode": "0x60806040523480156200001157600080fd5b5033604051806060016040528060278152602001620028ed602791396200003881620000c7565b506001600160a01b0381166200006957604051631e4fbdf760e01b8152600060048201526024015b60405180910390fd5b6200007481620000d9565b506200009b3360016103e8604051806020016040528060008152506200012b60201b60201c565b620000c1336002612710604051806020016040528060008152506200012b60201b60201c565b62000975565b6002620000d58282620006eb565b5050565b600380546001600160a01b038381166001600160a01b0319831681179093556040519116919082907f8be0079c531659141344cd1fd0a4f28419497f9722a3daafe3b4186f6b6457e090600090a35050565b6001600160a01b0384166200015757604051632bfa23e760e11b81526000600482015260240162000060565b604080516001808252602082018690528183019081526060820185905260808201909252906200018c60008784848762000194565b505050505050565b620001a285858585620001f7565b6001600160a01b03841615620001f05782513390600103620001e05760208481015190840151620001d88389898585896200041a565b50506200018c565b6200018c81878787878762000554565b5050505050565b8051825114620002285781518151604051635b05999160e01b81526004810192909252602482015260440162000060565b3360005b835181101562000336576020818102858101820151908501909101516001600160a01b03881615620002e3576000828152602081815260408083206001600160a01b038c16845290915290205481811015620002bc576040516303dee4c560e01b81526001600160a01b038a16600482015260248101829052604481018390526064810184905260840162000060565b6000838152602081815260408083206001600160a01b038d16845290915290209082900390555b6001600160a01b038716156200032b576000828152602081815260408083206001600160a01b038b1684529091528120805483929062000325908490620007b7565b90915550505b50506001016200022c565b508251600103620003ba5760208301516000906020840151909150856001600160a01b0316876001600160a01b0316846001600160a01b03167fc3d58168c5ae7397731d063d5bbf3d657854427343f4c083240f7aacaa2d0f628585604051620003aa929190918252602082015260400190565b60405180910390a45050620001f0565b836001600160a01b0316856001600160a01b0316826001600160a01b03167f4a39dc06d4c0dbc64b70af90fd698a233a518aa5d07e595d983b8c0526c8f7fb86866040516200040b9291906200081d565b60405180910390a45050505050565b6001600160a01b0384163b156200018c5760405163f23a6e6160e01b81526001600160a01b0385169063f23a6e619062000461908990899088908890889060040162000897565b6020604051808303816000875af19250505080156200049f575060408051601f3d908101601f191682019092526200049c91810190620008de565b60015b6200050d573d808015620004d0576040519150601f19603f3d011682016040523d82523d6000602084013e620004d5565b606091505b5080516000036200050557604051632bfa23e760e11b81526001600160a01b038616600482015260240162000060565b805160208201fd5b6001600160e01b0319811663f23a6e6160e01b146200054b57604051632bfa23e760e11b81526001600160a01b038616600482015260240162000060565b50505050505050565b6001600160a01b0384163b156200018c5760405163bc197c8160e01b81526001600160a01b0385169063bc197c81906200059b908990899088908890889060040162000911565b6020604051808303816000875af1925050508015620005d9575060408051601f3d908101601f19168201909252620005d691810190620008de565b60015b6200060a573d808015620004d0576040519150601f19603f3d011682016040523d82523d6000602084013e620004d5565b6001600160e01b0319811663bc197c8160e01b146200054b57604051632bfa23e760e11b81526001600160a01b038616600482015260240162000060565b634e487b7160e01b600052604160045260246000fd5b600181811c908216806200067357607f821691505b6020821081036200069457634e487b7160e01b600052602260045260246000fd5b50919050565b601f821115620006e6576000816000526020600020601f850160051c81016020861015620006c55750805b601f850160051c820191505b818110156200018c57828155600101620006d1565b505050565b81516001600160401b0381111562000707576200070762000648565b6200071f816200071884546200065e565b846200069a565b602080601f8311600181146200075757600084156200073e5750858301515b600019600386901b1c1916600185901b1785556200018c565b600085815260208120601f198616915b82811015620007885788860151825594840194600190910190840162000767565b5085821015620007a75787850151600019600388901b60f8161c191681555b5050505050600190811b01905550565b80820180821115620007d957634e487b7160e01b600052601160045260246000fd5b92915050565b60008151808452602080850194506020840160005b838110156200081257815187529582019590820190600101620007f4565b509495945050505050565b604081526000620008326040830185620007df565b8281036020840152620008468185620007df565b95945050505050565b6000815180845260005b81811015620008775760208185018101518683018201520162000859565b506000602082860101526020601f19601f83011685010191505092915050565b6001600160a01b03868116825285166020820152604081018490526060810183905260a060808201819052600090620008d3908301846200084f565b979650505050505050565b600060208284031215620008f157600080fd5b81516001600160e01b0319811681146200090a57600080fd5b9392505050565b6001600160a01b0386811682528516602082015260a0604082018190526000906200093f90830186620007df565b8281036060840152620009538186620007df565b905082810360808401526200096981856200084f565b98975050505050505050565b611f6880620009856000396000f3fe608060405234801561001057600080fd5b50600436106102315760003560e01c8063715018a6116101305780639cd51d25116100b8578063e985e9c51161007c578063e985e9c51461047f578063edf52d1314610492578063f242432a146104a5578063f2fde38b146104b8578063f39ae94d146104cb57600080fd5b80639cd51d251461042f578063a22cb46514610437578063b6aeb4c61461044a578063b9eab8eb14610453578063e86badf41461045c57600080fd5b80638868c235116100ff5780638868c235146102c25780638b87c544146103c85780638d7e5ad3146104035780638da5cb5b1461040b57806391b9af691461042657600080fd5b8063715018a6146103855780637369740c1461038d5780637e798450146103955780637e8051b3146103a857600080fd5b806328b7c8c2116101be578063449dfd1711610182578063449dfd17146103085780634739ee06146103365780634868c6e41461033f5780634e1273f414610352578063615daa351461037257600080fd5b806328b7c8c2146102d45780632eb2c2d6146102dc5780632f966570146102ef57806336196664146102f85780633e4bee381461030057600080fd5b80630bff6a9b116102055780630bff6a9b146102905780630e89341c146102995780631e5028bf146102b95780631f610f4a146102c2578063250be712146102ca57600080fd5b8062fdd58e1461023657806301b753981461025c57806301ffc9a7146102645780630b76cb4c14610287575b600080fd5b61024961024436600461185c565b6104d4565b6040519081526020015b60405180910390f35b610249606481565b61027761027236600461189c565b6104fc565b6040519015158152602001610253565b6102496107d281565b6102496103e981565b6102ac6102a73660046118c0565b61054c565b604051610253919061191f565b61024961012c81565b610249600181565b6102d26105e0565b005b6102d261076f565b6102d26102ea366004611a7c565b6108ef565b6102496103eb81565b610249600a81565b610249600281565b61027761031636600461185c565b600660209081526000928352604080842090915290825290205460ff1681565b6102496107d381565b6102d261034d3660046118c0565b610956565b610365610360366004611b26565b610b5c565b6040516102539190611c22565b6102d2610380366004611c35565b610c29565b6102d2610d0b565b6102d2610d1f565b6102d26103a336600461185c565b610dd5565b6102496103b6366004611ca2565b60056020526000908152604090205481565b6103db6103d6366004611ca2565b610dfd565b604080519586526020860194909452928401919091526060830152608082015260a001610253565b6102d2610e52565b6003546040516001600160a01b039091168152602001610253565b6102496107d181565b6102d2610f02565b6102d2610445366004611cbd565b611003565b6102496107d581565b6102496107d481565b61027761046a366004611ca2565b60046020526000908152604090205460ff1681565b61027761048d366004611cf9565b61100e565b6102d26104a036600461185c565b61103c565b6102d26104b3366004611d2c565b611060565b6102d26104c6366004611ca2565b6110bf565b6102496103ea81565b6000818152602081815260408083206001600160a01b03861684529091529020545b92915050565b60006001600160e01b03198216636cdb3d1360e11b148061052d57506001600160e01b031982166303a24d0760e21b145b806104f657506301ffc9a760e01b6001600160e01b03198316146104f6565b60606002805461055b90611d91565b80601f016020809104026020016040519081016040528092919081815260200182805461058790611d91565b80156105d45780601f106105a9576101008083540402835291602001916105d4565b820191906000526020600020905b8154815290600101906020018083116105b757829003601f168201915b50505050509050919050565b336000908152600560205260409020546105fd9061012c90611dcb565b4210156106515760405162461bcd60e51b815260206004820152601c60248201527f54696d652072657761726420636f6f6c646f776e206e6f74206d65740000000060448201526064015b60405180910390fd5b33600081815260056020908152604080832042908190559051929360649361069e9344910192835260609190911b6bffffffffffffffffffffffff19166020830152603482015260540190565b6040516020818303038152906040528051906020012060001c6106c19190611dec565b905060006106d0600683611dec565b6106db906005611dcb565b905060006106ea600284611dec565b6106f5906001611dcb565b905061071333600183604051806020016040528060008152506110fd565b61072f33600284604051806020016040528060008152506110fd565b604080516000808252602082015233917fb8cda1e6ee46425b19d482e8f02a70c427632d02a6d680a29ef41c1b61ccaa2c910160405180910390a2505050565b600161077c3360016104d4565b10156107c05760405162461bcd60e51b8152602060048201526013602482015272496e73756666696369656e7420656e6572677960681b6044820152606401610648565b6107cc3360018061115a565b604080514260208201526bffffffffffffffffffffffff193360601b16918101919091524460548201526000906064906074016040516020818303038152906040528051906020012060001c6108229190611dec565b9050600080604683101561083d57506103e99050600161085c565b605a83101561085357506103ea9050600161085c565b506103eb905060015b610877338383604051806020016040528060008152506110fd565b6000610884601f85611dec565b61088f906014611dcb565b90506108ad33600283604051806020016040528060008152506110fd565b604080518481526020810184905233917fb8cda1e6ee46425b19d482e8f02a70c427632d02a6d680a29ef41c1b61ccaa2c91015b60405180910390a250505050565b336001600160a01b0386168114801590610910575061090e868261100e565b155b156109415760405163711bec9160e11b81526001600160a01b03808316600483015287166024820152604401610648565b61094e86868686866111c9565b505050505050565b6107d1811015801561096a57506107d58111155b6109ad5760405162461bcd60e51b8152602060048201526014602482015273125b9d985b1a59081b1959d95b99185c9e48125160621b6044820152606401610648565b33600090815260066020908152604080832084845290915290205460ff1615610a275760405162461bcd60e51b815260206004820152602660248201527f416c726561647920637261667465642074686973206c6567656e646172792076604482015265185c9a585b9d60d21b6064820152608401610648565b6005610a35336103eb6104d4565b1015610a835760405162461bcd60e51b815260206004820152601860248201527f496e73756666696369656e7420457069632053776f72647300000000000000006044820152606401610648565b6103e8610a913360026104d4565b1015610ad35760405162461bcd60e51b8152602060048201526011602482015270125b9cdd59999a58da595b9d0811dbdb19607a1b6044820152606401610648565b3360008181526006602090815260408083208584529091529020805460ff19166001179055610b06906103eb600561115a565b610b143360026103e861115a565b610b3033826001604051806020016040528060008152506110fd565b60408051828152600160208201523391600080516020611f13833981519152910160405180910390a250565b60608151835114610b8d5781518351604051635b05999160e01b815260048101929092526024820152604401610648565b6000835167ffffffffffffffff811115610ba957610ba9611932565b604051908082528060200260200182016040528015610bd2578160200160208202803683370190505b50905060005b8451811015610c2157602080820286010151610bfc906020808402870101516104d4565b828281518110610c0e57610c0e611e0e565b6020908102919091010152600101610bd8565b509392505050565b8151835114610c725760405162461bcd60e51b8152602060048201526015602482015274082e4e4c2f240d8cadccee8d040dad2e6dac2e8c6d605b1b6044820152606401610648565b60005b8351811015610cc357610cbb33858381518110610c9457610c94611e0e565b6020026020010151858481518110610cae57610cae611e0e565b602002602001015161115a565b600101610c75565b50600060019050610ce5338383604051806020016040528060008152506110fd565b60408051838152602081018390523391600080516020611f1383398151915291016108e1565b610d13611229565b610d1d6000611256565b565b6003610d2d336103e96104d4565b1015610d7b5760405162461bcd60e51b815260206004820152601a60248201527f496e73756666696369656e7420436f6d6d6f6e2053776f7264730000000000006044820152606401610648565b610d89336103e9600361115a565b610da7336103ea6001604051806020016040528060008152506110fd565b604080516103ea8152600160208201523391600080516020611f1383398151915291015b60405180910390a2565b610ddd611229565b610df982600183604051806020016040528060008152506110fd565b5050565b6000806000806000610e108660016104d4565b9450610e1d8660026104d4565b9350610e2b866103e96104d4565b9250610e39866103ea6104d4565b9150610e47866103eb6104d4565b905091939590929450565b6002610e60336103ea6104d4565b1015610eae5760405162461bcd60e51b815260206004820152601860248201527f496e73756666696369656e7420526172652053776f72647300000000000000006044820152606401610648565b610ebc336103ea600261115a565b610eda336103eb6001604051806020016040528060008152506110fd565b604080516103eb8152600160208201523391600080516020611f138339815191529101610dcb565b3360009081526004602052604090205460ff1615610f625760405162461bcd60e51b815260206004820152601c60248201527f53746172746572207061636b20616c726561647920636c61696d6564000000006044820152606401610648565b336000818152600460209081526040808320805460ff191660019081179091558151928301909152918152610f9b929190600a906110fd565b610fb83360026064604051806020016040528060008152506110fd565b610fd6336103e96001604051806020016040528060008152506110fd565b60405133907fb878f26b30d3e5d2d69a3c9062dac1d3b3e89d199bd347d90acfa385f2f9f4ba90600090a2565b610df93383836112a8565b6001600160a01b03918216600090815260016020908152604080832093909416825291909152205460ff1690565b611044611229565b610df982600283604051806020016040528060008152506110fd565b336001600160a01b0386168114801590611081575061107f868261100e565b155b156110b25760405163711bec9160e11b81526001600160a01b03808316600483015287166024820152604401610648565b61094e868686868661133e565b6110c7611229565b6001600160a01b0381166110f157604051631e4fbdf760e01b815260006004820152602401610648565b6110fa81611256565b50565b6001600160a01b03841661112757604051632bfa23e760e11b815260006004820152602401610648565b6040805160018082526020820186905281830190815260608201859052608082019092529061094e6000878484876113cc565b6001600160a01b03831661118357604051626a0d4560e21b815260006004820152602401610648565b604080516001808252602082018590528183019081526060820184905260a082019092526000608082018181529192916111c2918791859085906113cc565b5050505050565b6001600160a01b0384166111f357604051632bfa23e760e11b815260006004820152602401610648565b6001600160a01b03851661121c57604051626a0d4560e21b815260006004820152602401610648565b6111c285858585856113cc565b6003546001600160a01b03163314610d1d5760405163118cdaa760e01b8152336004820152602401610648565b600380546001600160a01b038381166001600160a01b0319831681179093556040519116919082907f8be0079c531659141344cd1fd0a4f28419497f9722a3daafe3b4186f6b6457e090600090a35050565b6001600160a01b0382166112d15760405162ced3e160e81b815260006004820152602401610648565b6001600160a01b03838116600081815260016020908152604080832094871680845294825291829020805460ff191686151590811790915591519182527f17307eab39ab6107e8899845ad3d59bd9653f200f220920489ca2b5937696c31910160405180910390a3505050565b6001600160a01b03841661136857604051632bfa23e760e11b815260006004820152602401610648565b6001600160a01b03851661139157604051626a0d4560e21b815260006004820152602401610648565b604080516001808252602082018690528183019081526060820185905260808201909252906113c387878484876113cc565b50505050505050565b6113d88585858561141f565b6001600160a01b038416156111c25782513390600103611411576020848101519084015161140a838989858589611633565b505061094e565b61094e818787878787611757565b805182511461144e5781518151604051635b05999160e01b815260048101929092526024820152604401610648565b3360005b8351811015611554576020818102858101820151908501909101516001600160a01b03881615611505576000828152602081815260408083206001600160a01b038c168452909152902054818110156114de576040516303dee4c560e01b81526001600160a01b038a166004820152602481018290526044810183905260648101849052608401610648565b6000838152602081815260408083206001600160a01b038d16845290915290209082900390555b6001600160a01b0387161561154a576000828152602081815260408083206001600160a01b038b16845290915281208054839290611544908490611dcb565b90915550505b5050600101611452565b5082516001036115d55760208301516000906020840151909150856001600160a01b0316876001600160a01b0316846001600160a01b03167fc3d58168c5ae7397731d063d5bbf3d657854427343f4c083240f7aacaa2d0f6285856040516115c6929190918252602082015260400190565b60405180910390a450506111c2565b836001600160a01b0316856001600160a01b0316826001600160a01b03167f4a39dc06d4c0dbc64b70af90fd698a233a518aa5d07e595d983b8c0526c8f7fb8686604051611624929190611e24565b60405180910390a45050505050565b6001600160a01b0384163b1561094e5760405163f23a6e6160e01b81526001600160a01b0385169063f23a6e61906116779089908990889088908890600401611e52565b6020604051808303816000875af19250505080156116b2575060408051601f3d908101601f191682019092526116af91810190611e97565b60015b61171b573d8080156116e0576040519150601f19603f3d011682016040523d82523d6000602084013e6116e5565b606091505b50805160000361171357604051632bfa23e760e11b81526001600160a01b0386166004820152602401610648565b805160208201fd5b6001600160e01b0319811663f23a6e6160e01b146113c357604051632bfa23e760e11b81526001600160a01b0386166004820152602401610648565b6001600160a01b0384163b1561094e5760405163bc197c8160e01b81526001600160a01b0385169063bc197c819061179b9089908990889088908890600401611eb4565b6020604051808303816000875af19250505080156117d6575060408051601f3d908101601f191682019092526117d391810190611e97565b60015b611804573d8080156116e0576040519150601f19603f3d011682016040523d82523d6000602084013e6116e5565b6001600160e01b0319811663bc197c8160e01b146113c357604051632bfa23e760e11b81526001600160a01b0386166004820152602401610648565b80356001600160a01b038116811461185757600080fd5b919050565b6000806040838503121561186f57600080fd5b61187883611840565b946020939093013593505050565b6001600160e01b0319811681146110fa57600080fd5b6000602082840312156118ae57600080fd5b81356118b981611886565b9392505050565b6000602082840312156118d257600080fd5b5035919050565b6000815180845260005b818110156118ff576020818501810151868301820152016118e3565b506000602082860101526020601f19601f83011685010191505092915050565b6020815260006118b960208301846118d9565b634e487b7160e01b600052604160045260246000fd5b604051601f8201601f1916810167ffffffffffffffff8111828210171561197157611971611932565b604052919050565b600067ffffffffffffffff82111561199357611993611932565b5060051b60200190565b600082601f8301126119ae57600080fd5b813560206119c36119be83611979565b611948565b8083825260208201915060208460051b8701019350868411156119e557600080fd5b602086015b84811015611a0157803583529183019183016119ea565b509695505050505050565b600082601f830112611a1d57600080fd5b813567ffffffffffffffff811115611a3757611a37611932565b611a4a601f8201601f1916602001611948565b818152846020838601011115611a5f57600080fd5b816020850160208301376000918101602001919091529392505050565b600080600080600060a08688031215611a9457600080fd5b611a9d86611840565b9450611aab60208701611840565b9350604086013567ffffffffffffffff80821115611ac857600080fd5b611ad489838a0161199d565b94506060880135915080821115611aea57600080fd5b611af689838a0161199d565b93506080880135915080821115611b0c57600080fd5b50611b1988828901611a0c565b9150509295509295909350565b60008060408385031215611b3957600080fd5b823567ffffffffffffffff80821115611b5157600080fd5b818501915085601f830112611b6557600080fd5b81356020611b756119be83611979565b82815260059290921b84018101918181019089841115611b9457600080fd5b948201945b83861015611bb957611baa86611840565b82529482019490820190611b99565b96505086013592505080821115611bcf57600080fd5b50611bdc8582860161199d565b9150509250929050565b60008151808452602080850194506020840160005b83811015611c1757815187529582019590820190600101611bfb565b509495945050505050565b6020815260006118b96020830184611be6565b600080600060608486031215611c4a57600080fd5b833567ffffffffffffffff80821115611c6257600080fd5b611c6e8783880161199d565b94506020860135915080821115611c8457600080fd5b50611c918682870161199d565b925050604084013590509250925092565b600060208284031215611cb457600080fd5b6118b982611840565b60008060408385031215611cd057600080fd5b611cd983611840565b915060208301358015158114611cee57600080fd5b809150509250929050565b60008060408385031215611d0c57600080fd5b611d1583611840565b9150611d2360208401611840565b90509250929050565b600080600080600060a08688031215611d4457600080fd5b611d4d86611840565b9450611d5b60208701611840565b93506040860135925060608601359150608086013567ffffffffffffffff811115611d8557600080fd5b611b1988828901611a0c565b600181811c90821680611da557607f821691505b602082108103611dc557634e487b7160e01b600052602260045260246000fd5b50919050565b808201808211156104f657634e487b7160e01b600052601160045260246000fd5b600082611e0957634e487b7160e01b600052601260045260246000fd5b500690565b634e487b7160e01b600052603260045260246000fd5b604081526000611e376040830185611be6565b8281036020840152611e498185611be6565b95945050505050565b6001600160a01b03868116825285166020820152604081018490526060810183905260a060808201819052600090611e8c908301846118d9565b979650505050505050565b600060208284031215611ea957600080fd5b81516118b981611886565b6001600160a01b0386811682528516602082015260a060408201819052600090611ee090830186611be6565b8281036060840152611ef28186611be6565b90508281036080840152611f0681856118d9565b9897505050505050505056fe84f6761ddb0e53992c21152e857c77b4caa1408c8c86aff8123aa093fd72e92ea2646970667358221220ebc0f6e00fca7ba3d386d42471e34364ed962beb11a4b6ee0fc4b9bb9383dd5764736f6c6343000818003368747470733a2f2f67616d652e6578616d706c652f6170692f6974656d2f7b69647d2e6a736f6e",
  "linkReferences": {},
  "deployedLinkReferences": {}
}